:020000040800F2
:1000000020370524490300084D500008D54E00084C
:100010007D2D009025060008C56400080000000042
:100020000000000000000000000000002D58000843
:100030006913000800000000495400082F58000808
:1000400063030008630300086303000863030008F8
:1000500063030008630300086303000863030008E8
:1000600063030008630300086303000863030008D8
:1000700063030008630300086303000863030008C8
:1000800063030008630300086303000863030008B8
:1000900063030008630300086303000863030008A8
:1000A00063030008E1300090630300082D2F0090E7
:1000B0006303000863030008630300086303000888
:1000C0006303000863030008630300086303000878
:1000D000630300084D5D00085162000863030008D7
:1000E00063030008630300080000000063030008C6
:1000F0006303000863030008630300080D10009009
:100100006303000863030008630300086303000837
:100110006303000863030008E930009063030008EC
:100120006303000863030008630300086303000817
:100130001D09000863030008630300086303000847
:1001400000000000000000000000000000000000AF
:10015000190A0008150B0008F90C0008896300084B
:1001600063030008630300086303000863030008D7
:1001700063030008630300086303000863030008C7
:1001800063030008630300086303000863030008B7
:1001900063030008630300086303000863030008A7
:1001A0006303000863030008630300086303000897
:1001B0006303000863030008630300086303000887
:1001C0006303000863030008630300086303000877
:1001D0006303000863030008630300086303000867
:1001E0006303000863030008630300086303000857
:1001F0006303000863030008630300086303000847
:100200006303000863030008630300086303000836
:100210006303000863030008630300086303000826
:100220006303000863030008630300080000000084
:100230006303000863030008000000006303000874
:1002400063030008630300086303000863030008F6
:1002500063030008630300086303000863030008E6
:1002600063030008630300086303000863030008D6
:100270006303000863030008630300080000000034
:100280006303000863030008630300080000000024
:10029000000000006303000800F002F800F045F8D9
:1002A0000AA090E8000C82448344AAF10107DA45D1
:1002B00001D100F03AF8AFF2090EBAE80F0013F0DE
:1002C000010F18BFFB1A43F001031847986600009E
:1002D000B8660000103A24BF78C878C1FAD852072F
:1002E00024BF30C830C144BF04680C6070470000B0
:1002F0000023002400250026103A28BF78C1FBD82F
:10030000520728BF30C148BF0B6070471FB506F0C9
:1003100017FB00F0DFF804000020002106F0FAFAD5
:10032000401C60601FBD10B510BD00F0ADF8114657
:10033000FFF7ECFF06F028F900F0D0F803B4FFF760
:10034000F2FF03BC06F0DCF8094880470948004783
:10035000FEE7FEE7FEE7FEE7FEE7FEE7FEE7FEE775
:10036000FEE7FEE704480549054A064B70470000D2
:100370003958000899020008202D0524203705244B
:10038000202F0524202F0524704753EA020C00F08B
:1003900069802DE9F04B4FF00006002B1FBFB3FA28
:1003A00083F503FA05F424FA05F65E4012BF1643FE
:1003B000B2FA82F502FA05F4C5F120051EBF22FA51
:1003C00005FC44EA0C04203556EA044C4FEA144478
:1003D00018BF641C4FF000084FF00009904271EB09
:1003E000030C39D3002919BFB1FA81F701FA07F6D6
:1003F000B0FA80F700FA07F6C7F120071EBF20FA0F
:1004000007FC46EA0C062037B6FBF4FCA7EB050711
:10041000103F07F01F0BCBF120060CFA0BFB2CFA58
:1004200006F644BFB3460026202FA4BF5E464FF019
:10043000000B5BEA060C08BF4FF0010B19EB0B0930
:10044000ABFB027C48EB0608C01B06FB02CC0BFB97
:1004500003CC71EB0C01C1E70B460246414648460E
:10046000BDE8F08B13B54FF000004FF00001AFF383
:100470000080BDE81C407047704770477047704768
:1004800000487047C02C05247546FFF7F9FFAE46BB
:1004900005006946534620F00700854618B020B590
:1004A000FFF760FFBDE820404FF000064FF0000767
:1004B0004FF000084FF0000B21F00701AC46ACE80C
:1004C000C009ACE8C009ACE8C009ACE8C0098D4679
:1004D0007047000000487047E02C052410B5044622
:1004E000AFF300802046BDE81040FFF727BF42F67B
:1004F000056CC9F2000C604747F27D6CC9F2000C34
:10050000604740F6557CC9F2000C604740F6FD5C40
:10051000C9F2000C604742F6F92CC9F2000C6047A2
:1005200042F63D3CC9F2000C604740F6317CC9F20E
:10053000000C604748F2050CC9F2000C604741F21C
:100540000D3CC9F2000C604741F2E11CC9F2000CFD
:10055000604747F66D7CC9F2000C604745F2C91C44
:10056000C9F2000C604741F62D7CC9F2000C6047CF
:1005700040F2E97CC9F2000C604742F2B95CC9F272
:10058000000C604740F2ED1CC9F2000C604740F2DD
:10059000D31CC9F2000C604740F2F12CC9F2000CE8
:1005A000604742F6853CC9F2000C604740F2672C78
:1005B000C9F2000C604742F6CD6CC9F2000C6047EE
:1005C00042F6197CC9F2000C604740F2250CC9F2D2
:1005D000000C604741F2713CC9F2000C604740F2E8
:1005E000112CC9F2000C604742F2616CC9F2000C98
:1005F000604742F24F6CC9F2000C604742F6E50CCE
:10060000C9F2000C604742F66D0CC9F2000C60475D
:1006100042F6654CC9F2000C604740F2496CC9F2E1
:10062000000C604700BFFEE73EB500240122102108
:10063000082005F06FFA01221021082005F050F97A
:100640004FF4612005F0B2FB01221021082005F0D3
:10065000E3FC01220821084605F0C4FB4FF46120A9
:1006600005F020FE00214FF4165005F0B7FEFFF70D
:100670003EFFFFF741FF0120FFF743FF32226321D6
:100680004A20FFF743FFFFF746FFFFF749FFC72167
:100690009520FFF74AFF7DE00020424910221346D3
:1006A000CDE900210290F0220146FFF743FF002030
:1006B0003C4910221346CDE900210290F02214217A
:1006C000FFF738FF002038A110221346CDE90021A2
:1006D0000290F0220146FFF72DFF012037490870F4
:1006E000FFF72DFFFFF730FF0446CCB900202D495E
:1006F00010221346CDE900210290F0220146FFF7B7
:1007000019FF00202EA110221346CDE900210290EE
:10071000F0220146FFF70EFF0020284908703AE05A
:100720000020204910221346CDE900210290F0223A
:100730000146FFF7FFFE002025A110221346CDE958
:1007400000210290F0220146FFF7F4FE0020102164
:1007500002232246CDE9001001465A20FFF7F9FE98
:100760000020104910221346CDE900210290F0220A
:100770001421FFF7DFFE002018A110221346CDE957
:1007800000210290F0221421FFF7D4FE4FF47A707A
:1007900005F0BEFE80E700BF4FF6FF70FFF7DEFEFC
:1007A0003EBD00000E000024455350303153204917
:1007B0006E6974696E672E2E2E000000D100002431
:1007C00045535030315320496E6974204F4B00001F
:1007D0006572726F725F636F64653A0045535030A3
:1007E000315320496E6974206572726F7200000087
:1007F0000EB5002039A110221346CDE90021029048
:10080000F0220146FFF796FE66E03848007801289E
:1008100044D137480078002840D136480078012874
:1008200045D100203349087033480088401E3249C2
:10083000088008460088E0B902202C4908702F483B
:10084000FFF791FE00202E4910221346CDE900212A
:100850000290F0221421FFF76DFE002029A1102242
:100860001346CDE900210290F0221421FFF762FE29
:100870001DE02848006800F5C860264908601E4948
:100880000988C1F164014FF4C8625143224A02EB66
:1008900041004FF4C861FFF76BFE08E01348007891
:1008A000022804D104F0FCFC002010490870104814
:1008B0000078012802D104F0CBFB08E00C48007856
:1008C000022804D104F066FC00200949087004F0F5
:1008D00095FB0A2005F01CFE97E7000053544D5F7E
:1008E00045524E49455F424F540000000400002429
:1008F00027000024F40000240C000024242B0524ED
:100900000E0000245265636F726420446F6E65218F
:1009100000000000080000241401002410B538482D
:10092000406800683749884204D93748006800F0B9
:1009300020002AE032484068006832496039884225
:1009400005D93048B438006800F020001DE02C487C
:10095000406800682D49884205D92A48B83800689F
:1009600000F0200011E026484068006827496039FF
:10097000884205D92548B838406800F0200004E0D6
:100980002248B838006800F02000C0B31C48406816
:1009900000681C49884204D920201B49091D0860B1
:1009A00026E017484068006816496039884204D933
:1009B00020201449AC3908601AE0114840680068EA
:1009C0001249884204D920200E49B03908600FE04E
:1009D0000B48406800680D496039884204D92020DE
:1009E0000A49B839C86003E020200849B83988604E
:1009F00007490868FFF7C1FD01200649087010BDCE
:100A00007C000024B804024000540258B8000240A0
:100A100094000024E700002410B5394840680068BD
:100A20003849884204D93848006800F400602AE058
:100A300033484068006833496039884205D93148F5
:100A4000B438006800F400601DE02D48406800687C
:100A50002E49884205D92B48B838006800F4006058
:100A600011E027484068006828496039884205D964
:100A70002648B838406800F4006004E02348B838DD
:100A8000006800F40060C8B31D48406800681D4954
:100A9000884204D9C8141C49091D086027E0184879
:100AA0004068006817496039884204D9C81415495C
:100AB000AC3908601BE0124840680068134988425E
:100AC00004D9C8140F49B039086010E00C484068D8
:100AD00000680E496039884204D9C8140B49B839F6
:100AE000C86004E04FF400600849B83988600449E0
:100AF0000868FFF742FD01200549087010BD00009D
:100B000094000024B804024000540258B800024087
:100B1000E600002410B573484068006872498842B6
:100B200004D97248006800F400102AE06D4840685B
:100B300000686D496039884205D96B48B43800684F
:100B400000F400101DE0674840680068684988426A
:100B500005D96548B838006800F4001011E0614814
:100B60004068006862496039884205D96048B838F1
:100B7000406800F4001004E05D48B838006800F4F4
:100B8000001088B35748406800685749884205D923
:100B90004FF400105549091D08602BE0514840688A
:100BA000006851496039884205D94FF400104E4918
:100BB000AC3908601EE04B48406800684C498842E8
:100BC00005D94FF400104849B039086012E0454893
:100BD0004068006846496039884206D94FF40010E1
:100BE0004349B839C86005E00CE04FF400104049B3
:100BF000B83988603B490868FFF7BFFC01203D49D0
:100C000008706DE03748406800683749884204D969
:100C10003648006800F480102AE0324840680068D6
:100C200031496039884205D92F48B438006800F44A
:100C300080101DE02B48406800682D49884205D986
:100C40002948B838006800F4801011E02548406851
:100C5000006827496039884205D92548B838406876
:100C600000F4801004E02248B838006800F48010D6
:100C700018B31C48406800681B49884205D94FF4E6
:100C800080101A49091D08602AE01648406800686B
:100C900015496039884205D94FF480101249AC39A2
:100CA00008601DE00F48406800681149884205D976
:100CB0004FF480100C49B039086011E009484068D1
:100CC00000680B496039884205D94FF48010084903
:100CD000B839C86004E04FF480100549B83988601D
:100CE00010BD000050000024B80402400054025817
:100CF000B8000240E500002410B53B484068006899
:100D00003A49884204D93A48006800F000602AE075
:100D100035484068006835496039884205D933480C
:100D2000B438006800F000601DE02F48406800689B
:100D30003049884205D92D48B838006800F0006075
:100D400011E02948406800682A496039884205D97D
:100D50002848B838406800F0006004E02548B838FA
:100D6000006800F0006088B31F48406800681F49B1
:100D7000884205D94FF000601D49091D08602BE02D
:100D800019484068006819496039884205D94FF010
:100D900000601649AC3908601EE0134840680068DE
:100DA0001449884205D94FF000601049B0390860F5
:100DB00012E00D48406800680E496039884206D943
:100DC0004FF000600B49B839C86005E00BE04FF008
:100DD00000600849B839886003490868FFF7CDFB0F
:100DE00001200549087010BD68000024B8040240C5
:100DF00000540258B8000240E40000240146374A7B
:100E00000868904249D0354A18320868904244D068
:100E1000324A3032086890423FD0304A483208683F
:100E200090423AD02D4A60320868904235D02B4A21
:100E300078320868904230D0284A90320868904250
:100E40002BD0264AA8320868904226D0244A086847
:100E5000904222D0224A1832086890421DD0204A7F
:100E600030320868904218D01D4A483208689042D3
:100E700013D01B4A6032086890420ED0184A78326C
:100E80000868904209D0164A90320868904204D00F
:100E9000134AA8320868904201D1012000E00020E6
:100EA000B0B10A78103A1823B2FBF3F000F0070251
:100EB0000C4B9A5CCA65032805D90A686FF30902CE
:100EC000121D8A6503E00A686FF309028A6503E070
:100ED000086820F0FF008865886D704710000240A8
:100EE000100402405A69000810B502682B4C0368D0
:100EF000A34222D0294C14340368A3421DD0274CAE
:100F000028340368A34218D0244C3C340368A3421D
:100F100013D0224C50340368A3420ED01F4C6434CB
:100F20000368A34209D01D4C78340368A34204D05F
:100F30001A4C8C340368A34201D1012300E0002342
:100F40008BB10378083B1424B3FBF4F1144B03EB8F
:100F500081030366124B8033436601F01F040123B3
:100F6000A340836618E00378103B1824B3FBF4F128
:100F70000C4B9A4204D80B4BA83B9A4200D3083141
:100F8000094B03EB81030366074B8033436601F093
:100F90001F040123A340836610BD000008540258BB
:100FA00000580258B8040240000802400179A9B371
:100FB000082940D8204B02689A4222D01E4B143395
:100FC00002689A421DD01C4B283302689A4218D0FE
:100FD000194B3C3302689A4213D0174B50330268C6
:100FE0009A420ED0144B643302689A4209D0124BD5
:100FF000783302689A4204D00F4B8C3302689A42CD
:1010000001D1012200E000224AB14A1E0B4B03EB42
:101010008202C266094A4032026708E00BE04A1EBB
:10102000074B03EB8202C266054A403202674A1E42
:1010300001239340436770470854025800590258EF
:1010400000090240014600208A69D2B98A6A32B199
:10105000012A0DD0022A03D0032A10D10EE000BFCE
:10106000CA6A02F08072B2F1807F00D1012007E0ED
:10107000CA6AB2F1C07F00D1012001E000E000BFE8
:1010800036E08A69B2F5005F1BD18A6A32B1012A63
:1010900007D0022A03D0032A11D10AE000BF0120A1
:1010A0000EE0CA6A02F08072B2F1807F00D10120A6
:1010B00006E0CA6AB2F1C07F00D1012000E000BFA3
:1010C00016E08A6A32B1012A05D0022A04D0032A26
:1010D0000CD103E000BF00BF012008E0CA6A02F0A3
:1010E0008072B2F1807F00D1012000E000BF00BF1C
:1010F00070470000F0B5856D846D984F0668BE425C
:1011000070D0964F18370668BE426BD0934F303779
:101110000668BE4266D0914F48370668BE4261D02D
:101120008E4F60370668BE425CD08C4F78370668B9
:10113000BE4257D0894F90370668BE4252D0874F83
:10114000A8370668BE424DD0854F0668BE4249D0DA
:10115000834F18370668BE4244D0814F3037066847
:10116000BE423FD07E4F48370668BE423AD07C4FE1
:1011700060370668BE4235D0794F78370668BE4280
:1011800030D0774F90370668BE422BD0744FA837C7
:101190000668BE4226D0734F0668BE4222D0714F09
:1011A00014370668BE421DD06E4F28370668BE420F
:1011B00018D06C4F3C370668BE4213D0694F503789
:1011C0000668BE420ED0674F64370668BE4209D03B
:1011D000644F78370668BE4204D0624F8C37066889
:1011E000BE4201D1012600E000263EB1D0E91976C9
:1011F0007E60C66E16B1D0E91C767E60574F0668D9
:10120000BE4249D0554F18370668BE4244D0534FAE
:1012100030370668BE423FD0504F48370668BE425E
:101220003AD04E4F60370668BE4235D04B4F7837C4
:101230000668BE4230D0494F90370668BE422BD078
:10124000464FA8370668BE4226D0454F0668BE42C4
:1012500022D0434F18370668BE421DD0404F30376A
:101260000668BE4218D03E4F48370668BE4213D0CB
:101270003B4F60370668BE420ED0394F783706685C
:10128000BE4209D0364F90370668BE4204D0344F74
:10129000A8370668BE4201D1012600E00026DEB173
:1012A00090F85C6006F01F073F26BE40AE600668FF
:1012B000366826F4802607683E6006687360866894
:1012C000402E04D10668B2600668F16044E006680A
:1012D000B1600668F2603FE0224F0668BE4222D04D
:1012E000204F14370668BE421DD01E4F28370668AF
:1012F000BE4218D01B4F3C370668BE4213D0194F70
:1013000050370668BE420ED0164F64370668BE429C
:1013100009D0144F78370668BE4204D0114F8C377D
:101320000668BE4201D1012600E00026A6B190F871
:101330005C6006F01F070126BE40666006687360A9
:101340008668402E04D10668B2600668F16003E04A
:101350000668B1600668F260F0BD0000100002404F
:101360001004024008540258704700002DE9F04173
:10137000044601F0B5F9804614B90120BDE8F081BA
:1013800094F83500022808D08020606500BF002056
:1013900084F8340000BF0120F0E7FE49206888424D
:1013A00049D0FC4918312068884244D0F94930318D
:1013B000206888423FD0F7494831206888423AD0B7
:1013C000F44960312068884235D0F249783120688C
:1013D000884230D0EF499031206888422BD0ED49C7
:1013E000A8312068884226D0EB492068884222D064
:1013F000E9491831206888421DD0E749303120681A
:10140000884218D0E44948312068884213D0E24924
:101410006031206888420ED0DF49783120688842E8
:1014200009D0DD4990312068884204D0DA49A831DA
:101430002068884201D1012000E0002068B12068C6
:10144000006820F01E00216808602068406920F0D4
:10145000800021684861256806E02068006820F067
:101460000E00216808602568CA492068884270D04B
:10147000C8491831206888426BD0C649303120688D
:10148000884266D0C34948312068884261D0C1494A
:101490006031206888425CD0BE497831206888423B
:1014A00057D0BC4990312068884252D0B949A83100
:1014B000206888424DD0B8492068884249D0B64952
:1014C00018312068884244D0B349303120688842BE
:1014D0003FD0B1494831206888423AD0AE496031A6
:1014E0002068884235D0AC4978312068884230D0B5
:1014F000A9499031206888422BD0A749A83120689B
:10150000884226D0A5492068884222D0A3491431B8
:10151000206888421DD0A14928312068884218D00F
:101520009E493C312068884213D09C495031206844
:1015300088420ED0994964312068884209D0974981
:1015400078312068884204D094498C3120688842E0
:1015500001D1012000E0002028B1206E006820F4B5
:101560008070216E08608B492068884249D0894983
:1015700018312068884244D086493031206888423A
:101580003FD084494831206888423AD0814960314F
:101590002068884235D07F4978312068884230D031
:1015A0007C499031206888422BD07A49A831206844
:1015B000884226D078492068884222D0764918315E
:1015C000206888421DD0744930312068884218D084
:1015D000714948312068884213D06F4960312068D2
:1015E00088420ED06C4978312068884209D06A4917
:1015F00090312068884204D06749A8312068884229
:1016000006D12068006820F001002168086005E02C
:101610002068006820F001002168086011E001F0F6
:101620005FF8A0EB080005280BD92020606500BFFB
:10163000002084F8340000BF032084F83500012026
:101640009CE6286800F001000028E8D15149206894
:10165000884249D04F4918312068884244D04D49CA
:101660003031206888423FD04A494831206888425A
:101670003AD0484960312068884235D045497831B0
:101680002068884230D043499031206888422BD06E
:101690004049A8312068884226D03F4920688842C6
:1016A00022D03D491831206888421DD03A49303156
:1016B0002068884218D0384948312068884213D0C1
:1016C00035496031206888420ED03349783120682E
:1016D000884209D0304990312068884204D02E4990
:1016E000A8312068884201D1012000E0002040B1EB
:1016F000A66D94F85C0000F01F013F208840B060A8
:1017000007E0A76D94F85C0000F01F0101208840FD
:10171000786020492068884276D01E4918312068B8
:10172000884271D01B493031206888426CD01949F9
:1017300048312068884267D0164960312068884265
:1017400062D014497831206888425DD011499031C7
:101750002068884258D00F49A8312068884253D069
:101760000D49206888424FD00B49183120688842C3
:101770004AD0094930312068884245D0064948316D
:101780002068884240D004496031206888423BD0BC
:10179000014905E0100002401004024008540258BC
:1017A0007831206888422FD02549206888422BD084
:1017B000234918312068884226D02249206888426F
:1017C00022D020491431206888421DD01D4928317B
:1017D0002068884218D01B493C312068884213D0C9
:1017E00018495031206888420ED01649643120686B
:1017F000884209D0134978312068884204D01149C1
:101800008C312068884201D1012000E0002068B1BD
:10181000D4E919104860E06E40B1E06E006820F431
:101820008070E16E0860D4E91C10486000BF0020A1
:1018300084F8340000BF012084F8350000209DE5C5
:10184000A00402400854025870B504460CB90120A7
:1018500070BD94F83500022803D080206065012017
:10186000F6E7DC492068884249D0DA491831206817
:10187000884244D0D7493031206888423FD0D5498A
:101880004831206888423AD0D24960312068884285
:1018900035D0D04978312068884230D0CD49903158
:1018A000206888422BD0CB49A8312068884226D0B6
:1018B000C9492068884222D0C74918312068884227
:1018C0001DD0C54930312068884218D0C2494831FE
:1018D0002068884213D0C0496031206888420ED009
:1018E000BD4978312068884209D0BB4990312068D1
:1018F000884204D0B849A8312068884201D101202B
:1019000000E00020F0B3042084F83500B1492068DD
:1019100088424BD0AF4918312068884246D0AD4943
:1019200030312068884241D0AA4948312068884235
:101930003CD0A84960312068884237D0A549783129
:101940002068884232D0A3499031206888422DD047
:10195000A049A8312068884228D09F492068884241
:1019600024D09D491831206888421FD09A493031CF
:10197000206888421AD0984948312068884215D09A
:10198000954900E020E06031206888420ED09249FD
:1019900078312068884209D08F4990312068884288
:1019A00004D08D49A8312068884206D1206800689B
:1019B00020F001002168086009E12068006820F03B
:1019C00001002168086002E12068006820F00E0034
:1019D000216808607F492068884249D07D491831D4
:1019E0002068884244D07B493031206888423FD00B
:1019F00078494831206888423AD076496031206879
:101A0000884235D0734978312068884230D0714996
:101A10009031206888422BD06E49A83120688842D6
:101A200026D06D492068884222D06B491831206841
:101A300088421DD0684930312068884218D06649F4
:101A400048312068884213D0634960312068884259
:101A50000ED0614978312068884209D05E499031C2
:101A60002068884204D05C49A8312068884206D1A9
:101A70002068006820F001002168086005E0206807
:101A8000006820F0010021680860524920688842FF
:101A900070D050491831206888426BD04D493031A0
:101AA0002068884266D04B4948312068884261D01E
:101AB00048496031206888425CD0464978312068C6
:101AC000884257D0434990312068884252D04149DA
:101AD000A831206888424DD03F492068884249D0CB
:101AE0003D4918312068884244D03B493031206854
:101AF00088423FD038494831206888423AD0364938
:101B000060312068884235D0334978312068884276
:101B100030D031499031206888422BD02E49A831ED
:101B20002068884226D02D492068884222D02B493F
:101B30001431206888421DD0284928312068884205
:101B400018D026493C312068884213D023495031AF
:101B5000206888420ED0214964312068884209D02B
:101B60001E4978312068884204D01C498C31206895
:101B7000884201D1012000E00020D8B1206E006829
:101B800020F48070216E0860A56D94F85C0000F070
:101B90001F01012088406860D4E919104860E06E98
:101BA00040B1E06E006820F48070E16E0860D4E916
:101BB0001C10486000BF002084F8340000BF0120E2
:101BC00084F83500206D10B12046216D8847002033
:101BD0003EE6000010000240100402400854025883
:101BE0000146486D704700002DE9F041044600F0C1
:101BF00077FD804614B90120BDE8F081FE492068D8
:101C0000884249D0FC4918312068884244D0FA49BA
:101C10003031206888423FD0F749483120688842F7
:101C20003AD0F54960312068884235D0F2497831A0
:101C30002068884230D0F0499031206888422BD00B
:101C4000ED49A8312068884226D0EC4920688842B6
:101C500022D0EA491831206888421DD0E749303146
:101C60002068884218D0E54948312068884213D05E
:101C7000E2496031206888420ED0E049783120681E
:101C8000884209D0DD4990312068884204D0DB4980
:101C9000A8312068884201D1012000E000200028FE
:101CA00073D0606A00B100BF00BF002084F8340028
:101CB00000BF022084F83500CF492068884249D00F
:101CC000CD4918312068884244D0CB493031206852
:101CD00088423FD0C8494831206888423AD0C64936
:101CE00060312068884235D0C34978312068884205
:101CF00030D0C1499031206888422BD0BE49A831EC
:101D00002068884226D0BD492068884222D0BB493D
:101D10001831206888421DD0B84930312068884287
:101D200018D0B64948312068884213D0B349603191
:101D3000206888420ED0B14978312068884209D0A5
:101D4000AE4990312068884204D0AC49A83120685F
:101D5000884206D12068006820F0010021680860F0
:101D600005E02068006820F00100216808600DE0AF
:101D700000F0B6FCA0EB0800052807D9202060651C
:101D8000032084F83500012036E745E0206800682C
:101D900000F001000028EBD1206805689848054054
:101DA000D4E9020108432169084361690843A16934
:101DB0000843E1690843216A08430543606A04282F
:101DC00003D1D4E90B01084305432068056020686E
:101DD000456925F00705606A0543606A04280DD14E
:101DE000A06A0543E06A48B12046FFF72BF928B105
:101DF00040206065012084F83500FDE620684561DB
:101E00002046FEF7FBFF064694F85C0000F01F0139
:101E10003F208840B0609EE07A492068884222D006
:101E200078491431206888421DD0764928312068CD
:101E3000884218D073493C312068884213D07149D8
:101E40005031206888420ED06E4964312068884243
:101E500009D06C4978312068884204D069498C31B6
:101E60002068884201D1012000E00020E0B36549EC
:101E70002068884222D063491431206888421DD0EE
:101E8000604928312068884218D05E493C3120687A
:101E9000884213D05B495031206888420ED059499E
:101EA00064312068884209D05649783120688842D8
:101EB00004D054498C312068884201D1012000E0CF
:101EC000002000B100BF00BF002084F8340000BF34
:101ED000022084F83500206805684B480540A0685A
:101EE000402802D1102106E02EE0A068802801D110
:101EF000C10100E00021E06841EAD001206941EA27
:101F0000D001606941EAD001A06941EAD001E069ED
:101F100041EAD001206A41EA1010054320680560BB
:101F200038492068401A1421B0FBF1F08000E065C8
:101F30002046FEF763FF074694F85C0000F01F019F
:101F400001208840786006E040206065032084F826
:101F50003500012050E62849206888427AD0264979
:101F600018312068884275D0234930312068884272
:101F700070D021494831206888426BD01E496031B9
:101F80002068884266D01C4978312068884261D038
:101F900019499031206888425CD01749A8312068DF
:101FA000884257D015492068884253D013491831C8
:101FB000206888424ED0114930312068884249D08B
:101FC0000E4948312068884244D00C49603120686D
:101FD00088423FD009497831206888423AD0074981
:101FE00090312068884235D00449A8312068884261
:101FF00030D00449206809E010000240100402407B
:102000003F8010FE085402580F00FEFF884221D086
:102010002649206888421DD024491431206888420E
:1020200018D0224928312068884213D01F493C31FA
:10203000206888420ED01D4950312068884209D05E
:102040001A4964312068884204D0184978312068E0
:10205000884201D1012000E0002000B32046FEF7B5
:1020600043FFA068802801D1002060602079216EA4
:102070000860D4E919104860606860B16068082899
:1020800009D82046FEF792FF0020E16E0860D4E9EF
:102090001C10486003E00020E066206760670020B5
:1020A0006065012084F835000020A5E51C54025825
:1020B0002DE9F04104460D4616461F464FF0000834
:1020C00014B90120BDE8F08100BF94F83400012864
:1020D00001D10220F6E7012084F8340000BF94F813
:1020E000350001287ED1022084F83500002060658B
:1020F000E4492068884249D0E24918312068884282
:1021000044D0E0493031206888423FD0DD49483131
:10211000206888423AD0DB4960312068884235D057
:10212000D84978312068884230D0D649903120682B
:1021300088422BD0D349A8312068884226D0D24982
:102140002068884222D0D0491831206888421DD0AA
:10215000CD4930312068884218D0CB4948312068B9
:10216000884213D0C8496031206888420ED0C649E1
:1021700078312068884209D0C3499031206888426C
:1021800004D0C149A8312068884206D1206800687F
:1021900020F001002168086005E02068006820F058
:1021A0000100216808603B46324629462046FEF77A
:1021B000A1FFB449206888424BD0B2491831206849
:1021C000884246D0AF4930312068884241D0AD497D
:1021D0004831206888423CD0AA4960312068884252
:1021E00037D000E042E1A74978312068884230D0FA
:1021F000A4499031206888422BD0A249A831206898
:10220000884226D0A0492068884222D09E491831B1
:10221000206888421DD09C4930312068884218D0FF
:10222000994948312068884213D097496031206825
:1022300088420ED0944978312068884209D092496A
:1022400090312068884204D08F49A83120688842A4
:1022500001D1012000E0002080B12068006820F05A
:102260001E0040F0160021680860206CB0B12068A4
:10227000006840F00800216808600FE020680068EE
:1022800020F00E0040F00A0021680860206C28B1A0
:102290002068006840F004002168086079492068DF
:1022A000884270D077491831206888426BD07549D0
:1022B00030312068884266D07249483120688842AF
:1022C00061D070496031206888425CD06D497831B6
:1022D0002068884257D06B4990312068884252D09C
:1022E0006849A831206888424DD0674920688842F3
:1022F00049D0654918312068884244D0624930315C
:10230000206888423FD060494831206888423AD0EE
:102310005D4960312068884235D05B49783120685A
:10232000884230D058499031206888422BD0564995
:10233000A8312068884226D054492068884222D09B
:1023400052491431206888421DD0504928312068F4
:10235000884218D04D493C312068884213D04B49FF
:102360005031206888420ED0484964312068884244
:1023700009D0464978312068884204D043498C31DD
:102380002068884201D1012000E0002090B1206E39
:10239000006800F4803028B1206E006840F480703E
:1023A000216E0860E06E28B1E06E006840F4807035
:1023B000E16E086033492068884249D031491831BC
:1023C0002068884244D02F493031206888423FD06D
:1023D0002C494831206888423AD02A496031206827
:1023E000884235D0274978312068884230D0254945
:1023F0009031206888422BD02249A8312068884239
:1024000026D021492068884222D01F4918312068EF
:1024100088421DD01C4930312068884218D01A49A2
:1024200048312068884213D01749603120688842BB
:102430000ED0154978312068884209D01249903170
:102440002068884204D01049A8312068884206D10B
:102450002068006840F001002168086010E02068F2
:10246000006840F001002168086009E000BF00201A
:1024700084F8340000BF4FF4006060654FF001083D
:1024800040461FE610000240100402400854025863
:1024900010B50446A0B204F03BF810BD0348006834
:1024A00040F0010001490860704700002004005816
:1024B000F8B502460023734DDEE001279F400E6809
:1024C00006EA0704002C71D04E68022E02D04E6836
:1024D000122E13D1DF0802F1200656F827005E07FE
:1024E000F70E0F26BE40B0435F07FF0E0E69BE40D9
:1024F0003043DF0802F1200646F8270010685F002D
:102500000326BE40B0430E7906F003065F00BE40CE
:10251000304310604E68012E08D04E68022E05D060
:102520004E68112E02D04E68122E13D190685F00B3
:102530000326BE40B0435F00CE68BE40304390608B
:10254000506801269E40B0430E79C6F300169E40A7
:1025500030435060D0685F000326BE40B0435F0048
:102560008E68BE403043D0604E6806F08056B6F1AB
:10257000805F1BD100BF444E366846F00206424FD2
:102580003E603E46366806F00206009600BF00BF79
:102590003E4E9F0856F827009E07370F0F26BE4075
:1025A000B0433B4EB24202D100262EE063E0394EEA
:1025B000B24201D1012628E0374EB24201D10226B3
:1025C00023E0364EB24201D103261EE0344EB24221
:1025D00001D1042619E0334EB24201D1052614E0A0
:1025E000314EB24201D106260FE0304EB24201D147
:1025F00007260AE02E4EB24201D1082605E02D4EF4
:10260000B24201D1092600E00A269F073F0FBE40D3
:1026100030431E4E9F0846F827002868A0434E68A6
:1026200006F48036B6F5803F00D120432860686804
:10263000A0434E6806F40036B6F5003F00D12043B3
:1026400068604FF0B0463068A0434E6806F48016CC
:10265000B6F5801F00D120434FF0B046306070685F
:10266000A0434E6806F40016B6F5001F00D12043C3
:102670004FF0B04670605B1C0E68DE40002E7FF4A9
:102680001CAFF8BD80000058F444025808040058FC
:10269000000002580004025800080258000C0258BA
:1026A000001002580014025800180258001C02586A
:1026B0000020025800240258024613690B400BB157
:1026C000012000E0002070470AB1816101E00B04A5
:1026D0008361704701480068000C70470010005C7F
:1026E00001480068704700003C000024034800686F
:1026F0000349097808440149086070473C000024F8
:102700004400002410B5052000F00AF901F0AEFDE8
:1027100010490968C1F303210F4A515C01F01F0100
:10272000C8400E4908600B48006800F00F001146D1
:10273000085C00F01F0109480068C84008490860AB
:102740000F2000F00FF808B1012010BD00F09AF83A
:102750000020FAE7184402584A69000830000024B3
:102760003400002470B504461148007808B90120EF
:1027700070BD0F4800784FF47A71B1FBF0F00D494D
:102780000968B1FBF0F5284602F046FA08B10120CD
:10279000EEE7102C07D200222146501E00F083F8ED
:1027A0000548046001E00120E2E70020E0E70000C6
:1027B0004400002430000024400000244178154AE1
:1027C00011600178F9B1121D41681160017B0907A0
:1027D000C27A41EA0261827A41EAC241427B41EA1D
:1027E0008241827B41EA4241C27B41EA0241427A14
:1027F00041EA0221027A41EA420102781143054A84
:102800000832116005E00021024A121D1160121DFC
:102810001160704798ED00E000BF00BF00BFBFF33C
:102820005F8F00BF00BF00BF0548006820F4803004
:1028300003490860002002497031086070470000B9
:1028400024ED00E040F001010D4A11600C4970399F
:10285000096841F480310A4A703A116000BF00BF34
:1028600000BFBFF34F8F00BF00BF00BF00BF00BF5E
:1028700000BFBFF36F8F00BF00BF00BF70470000F5
:1028800094ED00E0704701460846002809DB00F09F
:102890001F0301229A4043099B0003F1E023C3F880
:1028A000002100BF70472DE9F05F80460D461646B7
:1028B00003F00AFE074639462A46334601F0070070
:1028C000C0F1070ABAF1040F02D94FF0040A01E07F
:1028D000C0F1070AD14600F1040ABAF1070F02D28B
:1028E0004FF0000A01E0A0F1030AD4464FF0010ABC
:1028F0000AFA09FAAAF1010A0AEA020A0AFA0CFA21
:102900004FF0010B0BFA0CFBABF1010B0BEA030BC5
:102910004AEA0B042146404603F0DEFDBDE8F09F85
:1029200000BF00F00702064B19684FF6FF0319407D
:10293000044B0B4343EA0221014B196000BF70476F
:102940000CED00E00000FA050348006840F08070DC
:1029500001490860704700000C48025810B501F0AA
:1029600085FC07490968C1F30321064A515C01F05F
:102970001F01C840044908600846006810BD0000F7
:10298000184402584A6900083000002410B501F0CC
:1029900031FC05490968C1F30211044A515C01F098
:1029A0001F01C84010BD0000204402584A690008B9
:1029B00070B50146844D2D6805F00303824D2D68E6
:1029C000C5F30510804D2D1D2D6805F001047E4DC9
:1029D0000C352D68C5F3CC0515FB04F501EE105A36
:1029E000B8EE411AF0EE410A00286FD023B1012B56
:1029F0004ED0022B6BD16BE0734D283D2D68C5F393
:102A000040153DB3704D283D2D68C5F3C1066F4D8F
:102A100025FA06F201EE102AF8EE411A01EE100A2C
:102A2000B8EE411A81EE812A9FED691AC0EE811A33
:102A3000654D08352D68C5F3080501EE105AB8EE4E
:102A4000411A31EE811AF7EE001A31EE211A22EE08
:102A5000010A1CE001EE100AB8EE411ADFED5D1A22
:102A600081EE812A9FED5A1AC0EE811A564D083523
:102A70002D68C5F3080501EE105AB8EE411A31EE83
:102A8000811AF7EE001A31EE211A22EE010A5BE0FC
:102A900001EE100AB8EE411ADFED4F1A81EE812ADD
:102AA0009FED4B1AC0EE811A474D08352D68C5F3CE
:102AB000080501EE105AB8EE411A31EE811AF7EE10
:102AC000001A31EE211A22EE010A3DE077E01DE006
:102AD00001EE100AB8EE411A9FED402AC2EE011A2B
:102AE0009FED3B1A80EE812A374D08352D68C5F3DE
:102AF000080501EE105AB8EE411A32EE011AB7EE8F
:102B0000002A31EE021A21EE810A1DE001EE100AC0
:102B1000B8EE411ADFED301A81EE812A9FED2C1AB2
:102B2000C0EE811A284D08352D68C5F3080501EE61
:102B3000105AB8EE411A31EE811AF7EE001A31EE52
:102B4000211A22EE010A00BF00BF1F4D08352D6873
:102B5000C5F3462501EE105AB8EE411AF7EE001AF9
:102B600031EE211AC0EE011ABCEEE11A81ED001A15
:102B7000154D08352D68C5F3064501EE105AB8EE1F
:102B8000411AF7EE001A31EE211AC0EE011ABCEE1E
:102B9000E11A81ED011A0C4D08352D68C5F3066563
:102BA00001EE105AB8EE411AF7EE001A31EE211A72
:102BB000C0EE011ABCEEE11A81ED021A03E0002515
:102BC0000D604D608D6070BD284402580090D003A8
:102BD000000000460024744C0024744A0024F44A87
:102BE00070B50146844D2D6805F00303824D2D68B4
:102BF000C5F30530804D2D1D2D68C5F300147E4DA5
:102C000014352D68C5F3CC0515FB04F501EE105AFB
:102C1000B8EE411AF0EE410A00286FD023B1012B23
:102C20004ED0022B6BD16BE0734D283D2D68C5F360
:102C300040153DB3704D283D2D68C5F3C1066F4D5D
:102C400025FA06F201EE102AF8EE411A01EE100AFA
:102C5000B8EE411A81EE812A9FED691AC0EE811A01
:102C6000654D10352D68C5F3080501EE105AB8EE14
:102C7000411A31EE811AF7EE001A31EE211A22EED6
:102C8000010A1CE001EE100AB8EE411ADFED5D1AF0
:102C900081EE812A9FED5A1AC0EE811A564D1035E9
:102CA0002D68C5F3080501EE105AB8EE411A31EE51
:102CB000811AF7EE001A31EE211A22EE010A5BE0CA
:102CC00001EE100AB8EE411ADFED4F1A81EE812AAB
:102CD0009FED4B1AC0EE811A474D10352D68C5F394
:102CE000080501EE105AB8EE411A31EE811AF7EEDE
:102CF000001A31EE211A22EE010A3DE077E01DE0D4
:102D000001EE100AB8EE411A9FED402AC2EE011AF8
:102D10009FED3B1A80EE812A374D10352D68C5F3A3
:102D2000080501EE105AB8EE411A32EE011AB7EE5C
:102D3000002A31EE021A21EE810A1DE001EE100A8E
:102D4000B8EE411ADFED301A81EE812A9FED2C1A80
:102D5000C0EE811A284D10352D68C5F3080501EE27
:102D6000105AB8EE411A31EE811AF7EE001A31EE20
:102D7000211A22EE010A00BF00BF1F4D10352D6839
:102D8000C5F3462501EE105AB8EE411AF7EE001AC7
:102D900031EE211AC0EE011ABCEEE11A81ED001AE3
:102DA000154D10352D68C5F3064501EE105AB8EEE5
:102DB000411AF7EE001A31EE211AC0EE011ABCEEEC
:102DC000E11A81ED011A0C4D10352D68C5F3066529
:102DD00001EE105AB8EE411AF7EE001A31EE211A40
:102DE000C0EE011ABCEEE11A81ED021A03E00025E3
:102DF0000D604D608D6070BD284402580090D00376
:102E0000000000460024744C0024744A0024F44A54
:102E100070B50146844D2D6805F00303824D2D6881
:102E2000C5F30550804D2D1D2D68C5F300247E4D42
:102E30001C352D68C5F3CC0515FB04F501EE105AC1
:102E4000B8EE411AF0EE410A00286FD023B1012BF1
:102E50004ED0022B6BD16BE0734D283D2D68C5F32E
:102E600040153DB3704D283D2D68C5F3C1066F4D2B
:102E700025FA06F201EE102AF8EE411A01EE100AC8
:102E8000B8EE411A81EE812A9FED691AC0EE811ACF
:102E9000654D18352D68C5F3080501EE105AB8EEDA
:102EA000411A31EE811AF7EE001A31EE211A22EEA4
:102EB000010A1CE001EE100AB8EE411ADFED5D1ABE
:102EC00081EE812A9FED5A1AC0EE811A564D1835AF
:102ED0002D68C5F3080501EE105AB8EE411A31EE1F
:102EE000811AF7EE001A31EE211A22EE010A5BE098
:102EF00001EE100AB8EE411ADFED4F1A81EE812A79
:102F00009FED4B1AC0EE811A474D18352D68C5F359
:102F1000080501EE105AB8EE411A31EE811AF7EEAB
:102F2000001A31EE211A22EE010A3DE077E01DE0A1
:102F300001EE100AB8EE411A9FED402AC2EE011AC6
:102F40009FED3B1A80EE812A374D18352D68C5F369
:102F5000080501EE105AB8EE411A32EE011AB7EE2A
:102F6000002A31EE021A21EE810A1DE001EE100A5C
:102F7000B8EE411ADFED301A81EE812A9FED2C1A4E
:102F8000C0EE811A284D18352D68C5F3080501EEED
:102F9000105AB8EE411A31EE811AF7EE001A31EEEE
:102FA000211A22EE010A00BF00BF1F4D18352D68FF
:102FB000C5F3462501EE105AB8EE411AF7EE001A95
:102FC00031EE211AC0EE011ABCEEE11A81ED001AB1
:102FD000154D18352D68C5F3064501EE105AB8EEAB
:102FE000411AF7EE001A31EE211AC0EE011ABCEEBA
:102FF000E11A81ED011A0C4D18352D68C5F30665EF
:1030000001EE105AB8EE411AF7EE001A31EE211A0D
:10301000C0EE011ABCEEE11A81ED021A03E00025B0
:103020000D604D608D6070BD284402580090D00343
:10303000000000460024744C0024744A0024F44A22
:103040002DE9F0418AB00646B6F5807F32D1DC48E2
:10305000006800F00707052F29D2DFE807F0030812
:103060000D26120007A8FFF7A3FC089C21E004A886
:10307000FFF7B6FD049C1CE001A8FFF7C9FE019C08
:1030800017E0CF48001F006800F040550DB9CD4C47
:103090000AE0B5F1805F01D1CB4C05E0B5F1005FEE
:1030A00001D1CA4C00E0002403E0C94C01E0002437
:1030B00000BF80E1B6F5007F38D1C148006800F458
:1030C000E077802F14D003DC47B1402F2BD10AE0EA
:1030D000C02F26D0B7F5807F25D10EE007A8FFF7D7
:1030E00067FC089C21E004A8FFF77AFD049C1CE023
:1030F00001A8FFF78DFE019C17E0B148001F006892
:1031000000F040550DB9AF4C0AE0B5F1805F01D138
:10311000AD4C05E0B5F1005F01D1AC4C00E00024FE
:1031200003E0AB4C01E0002400BF44E1B6F5806F42
:103130003CD1A3480830006800F46007B7F5800F61
:1031400016D004DC57B1B7F5001F2CD10BE0B7F552
:10315000C00F26D0B7F5000F25D10EE007A8FFF766
:1031600027FC089C21E004A8FFF73AFD049C1CE022
:1031700001A8FFF74DFE019C17E09148001F006871
:1031800000F040550DB98F4C0AE0B5F1805F01D1D8
:103190008D4C05E0B5F1005F01D18C4C00E00024BE
:1031A00003E08B4C01E0002400BF04E1B6F5006FA2
:1031B0003CD183480830006800F0E067B7F1007F39
:1031C00016D004DC57B1B7F1807F2CD10BE0B7F1FA
:1031D000407F26D0B7F1806F25D10EE007A8FFF71A
:1031E000E7FB089C21E004A8FFF7FAFC049C1CE024
:1031F00001A8FFF70DFE019C17E07148001F006851
:1032000000F040550DB96F4C0AE0B5F1805F01D177
:103210006D4C05E0B5F1005F01D16C4C00E000247D
:1032200003E06B4C01E0002400BFC4E0B6F5805F12
:103230003DD16348006800F4E048B8F5005F18D05D
:1032400006DCB8F1000F0AD0B8F5805F2CD10BE096
:10325000B8F5405F26D0B8F5804F25D10EE007A81D
:10326000FFF7A6FB089C21E004A8FFF7B9FC049C2B
:103270001CE001A8FFF7CCFD019C17E05048001F9F
:10328000006800F040550DB94E4C0AE0B5F1805F82
:1032900001D14D4C05E0B5F1005F01D14B4C00E090
:1032A000002403E04A4C01E0002400BF83E0B6F5AF
:1032B000002F2FD142480830006800F44038B8F1A0
:1032C000000F06D0B8F5803F08D0B8F5003F1ED1FA
:1032D00009E004A8FFF784FC049C1AE001A8FFF7AA
:1032E00097FD039C15E03648001F006800F040552C
:1032F0000DB9344C0AE0B5F1805F01D1324C05E0E4
:10330000B5F1005F01D1314C00E0002401E0002460
:1033100000BF50E0B6F5803F18D12948001F006873
:1033200000F48038B8F1000F03D0B8F5803F0AD11F
:1033300004E007A8FFF73CFB089C06E004A8FFF7A1
:103340004FFC069C01E0002400BF34E0B6F5804F3E
:1033500030D11B480830006800F0E048B8F1405F09
:103360001FD009DCB8F1000F0DD0B8F1805F0ED08E
:10337000B8F1005F1BD10FE0B8F1804F13D0B8F166
:10338000A04F14D111E0FFF701FB044611E004A89F
:10339000FFF726FC059C0CE001A8FFF739FD029C15
:1033A00007E0084C05E0084C03E0084C01E000246D
:1033B00000BF00E0002420460AB0BDE8F081000014
:1033C000504402580090D00300093D0000127A00DA
:1033D0000080BB002DE9F04104460025A846206886
:1033E00000F00060B0F1006F30D1606E48B1B0F510
:1033F000801F0DD0B0F5001F10D0B0F5401F15D1C3
:1034000013E0F948006840F40030F74908600FE025
:103410000221201D02F01AF8054609E0022104F1FC
:10342000240002F0C5F8054602E001E0012500BFD6
:1034300000BF55B9EC482430006820F44010616E9C
:103440000843E9492431086000E0A846208800F4D8
:103450008070B0F5807F2DD1606D05281AD2DFE82D
:1034600000F0030A10171800DF48006840F400302D
:10347000DD49086010E00021201D01F0E7FF05464E
:103480000AE0002104F1240002F092F8054603E06E
:1034900002E001E0012500BF00BF55B9D248243049
:1034A000006820F00700616D0843CF4924310860AF
:1034B00000E0A846208800F40070B0F5007F33D10A
:1034C000A06D802817D003DC40B140281CD10CE04F
:1034D000C02817D0B0F5807F16D114E0C24800682C
:1034E00040F40030C049086010E00021201D01F0C8
:1034F000ADFF05460AE0002104F1240002F058F86F
:10350000054603E002E001E0012500BF00BF55B918
:10351000B5482430006820F4E070A16D0843B2493A
:103520002431086000E0A846208800F48060B0F5EF
:10353000806F38D1D4F8A400B0F5800F19D004DC26
:1035400050B1B0F5001F1DD10DE0B0F5C00F17D080
:10355000B0F5000F16D114E0A348006840F4003025
:10356000A149086010E00021201D01F06FFF054611
:103570000AE0002104F1240002F01AF8054603E0F5
:1035800002E001E0012500BF00BF5DB996482C3084
:10359000006820F46000D4F8A410084392492C314C
:1035A000086000E0A846208800F40060B0F5006FD5
:1035B00038D1D4F8A800B0F1007F19D004DC50B1A4
:1035C000B0F1807F1DD10DE0B0F1407F17D0B0F198
:1035D000806F16D114E08448006840F400308249BE
:1035E000086010E00021201D01F030FF05460AE0D0
:1035F000002104F1240001F0DBFF054603E002E0B6
:1036000001E0012500BF00BF5DB977482C3000689C
:1036100020F0E060D4F8A810084373492C3108600A
:1036200000E0A846206800F00070B0F1007F27D1CC
:10363000A06CA0B1102804D0202809D030280FD1C8
:103640000CE06948006840F400306749086009E010
:103650000221201D01F0FAFE054603E002E001E030
:10366000012500BF00BF55B95F482030006820F039
:103670003000A16C08435C492031086000E0A84696
:10368000208800F48050B0F5805F36D1E06DB0F551
:10369000005F19D004DC50B1B0F5805F1DD10DE0A2
:1036A000B0F5405F17D0B0F5804F16D114E04E480A
:1036B000006840F400304C49086010E00021201DF3
:1036C00001F0C4FE05460AE0002104F1240001F0E7
:1036D0006FFF054603E002E001E0012500BF00BFE7
:1036E00055B941482430006820F4E040E16D0843BA
:1036F0003D492431086000E0A846208800F40050CD
:10370000B0F5005F34D1206EB0F5403F1DD007DC2E
:1037100068B1B0F5803F0BD0B0F5003F18D10DE097
:10372000B0F5802F12D0B0F5A02F11D10FE011E02D
:103730000121201D01F08AFE05460BE0012104F164
:10374000240001F035FF054604E003E002E001E05B
:10375000012500BF00BF55B923482430006820F47C
:10376000E020216E084320492431086000E0A8468B
:10377000208800F48040B0F5804F38D1D4F8AC00F8
:10378000B0F1405F1DD007DC68B1B0F1805F0BD0B5
:10379000B0F1005F18D10DE0B0F1804F12D0B0F160
:1037A000A04F11D10FE011E00121201D01F04EFECC
:1037B00005460BE0012104F1240001F0F9FE054665
:1037C00004E003E002E001E0012500BF00BF6DB9A5
:1037D00005482C30006820F0E040D4F8AC100843D5
:1037E00001492C31086002E02C440258A846208888
:1037F00000F40040B0F5004F26D1E06E98B1B0F172
:10380000805F03D0B0F1005F0ED106E0F948006898
:1038100040F40030F749086008E00121201D01F064
:1038200015FE054602E001E0012500BF00BF55B9C5
:10383000F0482430006820F04050E16E0843ED4924
:103840002431086000E0A846206800F08070B0F1E4
:10385000807F27D1606CA0B1012804D0022809D054
:1038600003280FD10CE0E348006840F40030E14940
:10387000086009E00221201D01F0E8FD054603E093
:1038800002E001E0012500BF00BF55B9D948203052
:10389000006820F00300616C0843D64920310860BD
:1038A00000E0A846206800F48000B0F5800F7DD1CC
:1038B000D148006840F48070CF490860FEF710FFDF
:1038C000064606E0FEF70CFF801B642801D903259D
:1038D00005E0C948006800F480700028F2D000BFFD
:1038E00085BBC4484430006800F44070B4F8B010A0
:1038F00001F44071884213D0BE484430006820F47F
:103900004077BC484430006840F48030B9494431C5
:1039100008600846006820F48030086008460760A8
:10392000D4F8B000B0F5807F15D1FEF7D9FE064679
:1039300009E0FEF7D5FE801B41F28831884202D9AA
:10394000032507E038E0AB4844300068C0F340008E
:103950000028EED000BF55BB00BFB4F8B00000F4A3
:103960004070B0F5407F0ED1A2481C38006820F4AA
:103970007C51A24AD4F8B000104041EA10109D4991
:103980001C39086007E09B481C38006820F47C5014
:1039900098491C390860974844300068B4F8B01062
:1039A000C1F30B0108439349443101E005E001E014
:1039B000086002E0A84600E0A846207800F0010078
:1039C00068B3A06F182819D005DC48B1082808D0C2
:1039D000102816D10BE0202811D0282811D10FE093
:1039E00011E00121201D01F031FD05460BE0012110
:1039F00004F1240001F0DCFD054604E003E002E0F0
:103A000001E0012500BF00BF55B97A4828300068A1
:103A100020F03800A16F084376492831086000E0A3
:103A2000A846207800F00200022828D1606F0628FE
:103A300015D2DFE800F003040A11121311E001218E
:103A4000201D01F003FD05460BE0012104F12400D7
:103A500001F0AEFD054604E003E002E001E00125CF
:103A600000BF00BF55B963482830006820F0070048
:103A7000616F08435F492831086000E0A84620785C
:103A800000F0040004282AD1D4F89000062815D2AA
:103A9000DFE800F003040A11121311E00121201DD8
:103AA00001F0D4FC05460BE0012104F1240001F0F3
:103AB0007FFD054604E003E002E001E0012500BFD0
:103AC00000BF5DB94B482C30006820F00700D4F8E7
:103AD0009010084347492C31086000E0A846207840
:103AE00000F02000202836D1D4F88C00B0F1405FDF
:103AF0001DD007DC68B1B0F1805F0BD0B0F1005F82
:103B000018D10DE0B0F1804F12D0B0F1A04F11D11B
:103B10000FE011E00021201D01F098FC05460BE0AC
:103B2000022104F1240001F043FD054604E003E016
:103B300002E001E0012500BF00BF5DB92D4828303B
:103B4000006820F0E040D4F88C100843294928315F
:103B5000086000E0A846207800F04000402836D1F8
:103B6000D4F89800B0F5406F1DD007DC68B1B0F50F
:103B7000806F0BD0B0F5006F18D10DE0B0F5805F0D
:103B800012D0B0F5A05F11D10FE011E00021201D8F
:103B900001F05CFC05460BE0022104F1240001F079
:103BA00007FD054604E003E002E001E0012500BF57
:103BB00000BF5DB90F482C30006820F4E050D4F805
:103BC000981008430B492C31086000E0A846207883
:103BD00000F0800080283AD1D4F89C00B0F5C04FA6
:103BE00023D00DDC98B1B0F5005F11D0B0F5804F57
:103BF0001ED113E02C44025800480258FFFCFF0F6E
:103C0000B0F5004F12D0B0F5204F11D10FE011E008
:103C10000021201D01F01AFC05460BE0022104F1F1
:103C2000240001F0C5FC054604E003E002E001E0E9
:103C3000012500BF00BF4DB9AD48006820F46040C9
:103C4000D4F89C100843AA49086000E0A8462078F0
:103C500000F00800082817D1D4F88000B0F5805F84
:103C600007D1022104F1240001F0A2FC08B14FF0B9
:103C700001089F48001F006820F44050D4F88010CD
:103C800008439B49091F0860207800F010001028A5
:103C900015D1D4F89400B0F5807F07D1022104F14A
:103CA000240001F085FC08B14FF00108904800683D
:103CB00020F44070D4F8941008438D4908602068BF
:103CC00000F40020B0F5002F26D1D4F8A00030B1C8
:103CD000B0F5803F09D0B0F5003F0ED10CE00021D7
:103CE000201D01F0B3FB054609E0022104F1240088
:103CF00001F05EFC054602E001E0012500BF00BFC7
:103D00004DB97B48006820F44030D4F8A010084337
:103D10007749086000E0A846206800F48020B0F5EC
:103D2000802F2DD1D4F88400B0F5801F06D0B0F5D7
:103D3000001F0CD0B0F5401F11D10FE06C482C389B
:103D4000006840F400306A492C39086009E001211C
:103D500004F1240001F02CFC054602E001E00125FD
:103D600000BF00BF5DB96248001F006820F440102A
:103D7000D4F8841008435E49091F086000E0A84693
:103D8000206800F48030B0F5803F24D1E06C18B199
:103D9000B0F5803F0FD108E055482C38006840F45A
:103DA000003053492C39086007E00221201D01F042
:103DB0004DFB054601E0012500BF00BF55B94C4849
:103DC0000C38006820F48030E16C084348490C3915
:103DD000086000E0A846206800F00050B0F1005FE5
:103DE00007D1022104F1240001F0E2FB08B14FF0F9
:103DF0000108206800F40030B0F5003F27D1E06FE3
:103E0000A0B1B0F5807F06D0B0F5007F0CD0B0F542
:103E1000407F0CD109E036482C38006840F400306F
:103E200033492C39086004E003E002E001E0012599
:103E300000BF00BF55B92E48001F006820F4407035
:103E4000E16F08432A49091F086000E0A84620687E
:103E500000F48010B0F5801F09D1254808380068AB
:103E600020F00040216F084321490839086020688C
:103E700000F40010B0F5001F09D11D480838006893
:103E800020F08070A16E0843194908390860206845
:103E900000F08040B0F1804F11D100BF1448483885
:103EA000006820F40040124948390860084600685C
:103EB000D4F8B81008430E494839086000BF20689C
:103EC00000F00040B0F1004F09D109480C380068FB
:103ED00020F04050216D084305490C390860B8F1C5
:103EE000000F02D10020BDE8F0810120FBE70000B7
:103EF000584402582DE9F04104460D4614B90120FA
:103F0000BDE8F081B648006800F00F00A8420ED26C
:103F1000B348006820F00F002843B1490860084604
:103F2000006800F00F00A84201D00120E8E72078E7
:103F300000F0040004280ED1AA492069096801F0A4
:103F40007001884207D9A748006820F070002169F5
:103F50000843A4490860207800F00800082811D11F
:103F6000A049091D6069096801F07001884209D9FA
:103F70009C48001D006820F0700061690843994961
:103F8000091D0860207800F01000102811D1954913
:103F9000091DA069096801F4E061884209D99148C6
:103FA000001D006820F4E060A16908438D49091DE7
:103FB0000860207800F02000202811D189490831BC
:103FC000E069096801F07001884209D98548083024
:103FD000006820F07000E1690843824908310860F8
:103FE000207800F0020002280ED17E49E0680968BE
:103FF00001F00F01884207D97A48006820F00F00CD
:10400000E168084377490860207800F00100002843
:1040100050D07448006820F47060A168084371496A
:1040200008606068022807D16E4818380068C0F33D
:104030004040F8B9012063E76068032807D1694868
:1040400018380068C0F34060A0B9012058E76068E4
:10405000012807D1634818380068C0F3002048B928
:1040600001204DE75F4818380068C0F3800008B9A8
:10407000012045E75B480838006820F007006168C8
:104080000843584908390860FEF72AFB064608E04D
:10409000FEF726FB801B41F28831884201D90320BC
:1040A0002EE750480838006800F038006168B0EB2F
:1040B000C10FEDD1207800F0020002280ED149494D
:1040C000E068096801F00F01884207D2454800689E
:1040D00020F00F00E168084342490860404800684A
:1040E00000F00F00A8420ED93D48006820F00F00F4
:1040F00028433B4908600846006800F00F00A842CA
:1041000001D00120FCE6207800F0040004280ED144
:1041100034492069096801F07001884207D23148AA
:10412000006820F07000216908432E49086020785B
:1041300000F00800082811D12A49091D60690968A2
:1041400001F07001884209D22648001D006820F065
:104150007000616908432349091D0860207800F058
:104160001000102811D11F49091DA069096801F428
:10417000E061884209D21B48001D006820F4E0601D
:10418000A16908431749091D0860207800F0200044
:10419000202811D113490831E069096801F0700144
:1041A000884209D20F480830006820F07000E169A9
:1041B00008430C490831086000F058F809490968BB
:1041C000C1F30321084A515C01F01F01C8400749AF
:1041D000086007480068FEF7C5FA074638468FE6CC
:1041E00000200052184402584A6900083000002498
:1041F0004000002410B5FEF7B1FB0749096801F043
:104200000F01064A515C01F01F01C84004490860D3
:104210000846006810BD0000184402584A690008AA
:104220003400002410B5FFF7E5FF05490968C1F324
:104230000211044A515C01F01F01C84010BD00008A
:104240001C4402584A69000810B5FFF7D3FF05491E
:104250000968C1F30221044A515C01F01F01C84002
:1042600010BD00001C4402584A690008F0B5824E97
:10427000366806F0380636B1082E15D0102E15D047
:10428000182E7DD114E07C4E103E3668C6F34016E1
:1042900046B1794E103E3668C6F3C107774E26FA0E
:1042A00007F000E07548E5E07548E3E07548E1E0B7
:1042B000714E1836366806F003046F4E18363668AD
:1042C000C6F305116C4E1C36366806F001056A4EC1
:1042D00024363668C6F3CC0616FB05F601EE106AE6
:1042E000B8EE410A002971D024B1012C50D0022C23
:1042F0006DD16DE0604E103E3668C6F340163EB399
:104300005D4E103E3668C6F3C1075C4E26FA07F3D1
:1043100001EE103AF8EE411A01EE101AB8EE411A09
:1043200081EE812A9FED581AC0EE011A524E2036B6
:104330003668C6F3080601EE106AB8EE411A31EE8F
:10434000811AF7EE001A31EE211A62EE010A1EE020
:1043500001EE101AB8EE411ADFED4C1A81EE812AF7
:104360009FED491AC0EE011A434E20363668C6F357
:10437000080601EE106AB8EE411A31EE811A00E02B
:1043800076E0F7EE001A31EE211A62EE010A5BE0E8
:1043900001EE101AB8EE411A9FED3D2AC2EE011A45
:1043A0009FED391A80EE012A334E20363668C6F367
:1043B000080601EE106AB8EE411A32EE011AB7EEA5
:1043C000002A31EE021A61EE810A3DE04EE01DE066
:1043D00001EE101AB8EE411ADFED2E1A81EE812A95
:1043E0009FED291AC0EE011A234E20363668C6F317
:1043F000080601EE106AB8EE411A31EE811AF7EEA6
:10440000001A31EE211A62EE010A1DE001EE101AC7
:10441000B8EE411A9FED1E2AC2EE011A9FED1A1A3C
:1044200080EE012A144E20363668C6F3080601EEE7
:10443000106AB8EE411A32EE011AB7EE002A31EED8
:10444000021A61EE810A00BF00BF0B4E20363668AB
:10445000C6F34626721C01EE102AB8EE411AC0EED1
:10446000811ABCEEE11A11EE100A00E0002001E012
:10447000034800BF00BFF0BD104402580090D003B5
:1044800000093D0000127A00000000460024744C30
:104490000024744A0024F44A2DE9F047044614B974
:1044A0000120BDE8F087207800F00100002872D0DC
:1044B000F948006800F03808F7481830D0F8009044
:1044C000B8F1100F06D0B8F1180F0FD109F00300A2
:1044D00002280BD1F04810380068C0F34040002893
:1044E0006ED0606800286BD10120DAE700BF6068F9
:1044F000B0F5803F08D1E8481038006840F48030BB
:10450000E549103908602EE0606868B9E248103863
:10451000006820F48030E0491039086008460068DF
:1045200020F4802008601EE06068B0F5A02F0DD157
:10453000D9481038006840F48020D7491039086005
:104540000846006840F4803008600CE0D24810381B
:10455000006820F48030D0491039086008460068AF
:1045600020F48020086000BF6068A8B1FEF7B8F8AA
:10457000054608E0FEF7B4F8401B41F28831884256
:1045800001D903208DE7C44810380068C0F34040CB
:104590000028EFD014E014E0FEF7A2F8054608E08A
:1045A000FEF79EF8401B41F28831884201D9032072
:1045B00077E7B94810380068C0F340400028EFD1D1
:1045C00000BF207800F0020002286BD1B2480068DA
:1045D00000F03808B0481830D0F80090B8F1000F5B
:1045E00005D0B8F1180F2BD109F0030040BBAA4841
:1045F00010380068C0F3800018B1E06808B90120E5
:104600004FE700BFFEF766F841F2030188420BD87E
:10461000A1480C38006820F47C30216940EA013060
:104620009D490C3908600AE09B480C38006820F06E
:10463000FE40217C40EA016097490C39086058E04F
:10464000E06870B394481038006820F01900E16801
:104650000843914910390860FEF742F8054606E024
:10466000FEF73EF8401B022801D9032019E78A48CB
:1046700010380068C0F380000028F1D000BFFEF7BA
:1046800029F841F2030188420DD883480C380068AC
:1046900020F47C30216940EA01307F490C39086000
:1046A0000CE00CE026E07C480C38006820F0FE406E
:1046B000217C40EA016078490C39086019E07648AD
:1046C0001038006820F00100734910390860FEF7C7
:1046D00007F8054606E0FEF703F8401B022801D95B
:1046E0000320DEE66C4810380068C0F38000002824
:1046F000F1D100BF207800F0100010286ED166487C
:10470000006800F0380864481830D0F80090B8F11C
:10471000080F06D0B8F1180F2FD109F003000128B7
:104720002BD15D4810380068C0F3002020B1E0694B
:10473000802801D00120B4E600BFFDF7CBFF41F295
:10474000030188420CD854480C38006820F0F84027
:1047500094F8201040EA81604F490C3908600BE062
:104760004D48001F006820F07C5094F8201040EA6B
:1047700001604949091F086058E0E06968B346488C
:104780001038006840F08000434910390860FDF798
:10479000A7FF054606E0FDF7A3FF401B022801D94D
:1047A00003207EE63C4810380068C0F30020002853
:1047B000F1D000BFFDF78EFF41F2030188420ED811
:1047C00035480C38006820F0F84094F8201040EA92
:1047D000816031490C3908600DE00DE027E02E487A
:1047E000001F006820F07C5094F8201040EA01601F
:1047F0002949091F086019E027481038006820F08F
:104800008000254910390860FDF76AFF054606E07B
:10481000FDF766FF401B022801D9032041E61E4830
:1048200010380068C0F300200028F1D100BF2078C4
:1048300000F00800082837D16069D0B1164864300C
:10484000006840F00100144964310860FDF748FF3A
:10485000054606E0FDF744FF401B022801D903206E
:104860001FE60D4864300068C0F340000028F1D016
:104870001AE009486430006820F0010006496431FC
:104880000860FDF72DFF054608E0FDF729FF401BF6
:10489000022803D9032004E610440258DC480068CB
:1048A000C0F340000028F0D1207800F0200020283C
:1048B00036D1A069D0B1D6487438006840F4805031
:1048C000D34974390860FDF70BFF054606E0FDF794
:1048D00007FF401B022801D90320E2E5CC487438C9
:1048E0000068C0F340300028F1D019E0C84874389F
:1048F000006820F48050C64974390860FDF7F0FE66
:10490000054606E0FDF7ECFE401B022801D9032016
:10491000C7E5BF4874380068C0F340300028F1D1C3
:10492000207800F0040004287DD1BA48006840F4E3
:104930008070B8490860FDF7D3FE054606E0FDF734
:10494000CFFE401B642801D90320AAE5B1480068C6
:1049500000F480700028F2D000BFA068012808D1C0
:10496000AB48001F006840F00100A949091F08601A
:104970002DE0A06868B9A648001F006820F001007B
:10498000A349091F08600846006820F00400086079
:104990001DE0A06805280DD19D48001F006840F06B
:1049A00004009B49091F08600846006840F00100A8
:1049B00008600CE09648001F006820F00100944950
:1049C000091F08600846006820F00400086000BF66
:1049D000A068A0B1FDF784FE054608E0FDF780FE63
:1049E000401B41F28831884201D9032059E58848AB
:1049F000001F0068C0F340000028EFD013E0FDF76F
:104A00006FFE054608E0FDF76BFE401B41F2883162
:104A1000884201D9032044E57D48001F0068C0F3A7
:104A200040000028EFD1606A00287DD078486438C3
:104A3000006800F03800182877D0606A022875D125
:104A400073487438006820F08070714974390860C8
:104A5000FDF746FE054606E0FDF742FE401B022834
:104A600001D903201DE56A4874380068C0F340602E
:104A70000028F1D100BFD4E90A1041EA00106449CE
:104A80004C39096840F2F3329143084360494C398C
:104A90000860208E401EC0F30800616B491E4FF471
:104AA0007E4202EA41210843218F491ED20102EAD7
:104AB000014108433C21095D491E120202EA0161DD
:104AC000084353494439086000BF081F006820F0BC
:104AD0000100091F08604E48403800684FF6F87121
:104AE0008843A16C40EAC100494940390860484800
:104AF0004838006820F00C00216C084344494839CC
:104B000008600846006820F00200616C08434049D4
:104B1000483908600846006840F48030086008465C
:104B2000006840F4003002E06FE041E025E00860FA
:104B30000846006840F4802008600846006840F09D
:104B40000100086032487438006840F080703049D5
:104B500074390860FDF7C4FD054606E0FDF7C0FDA9
:104B6000401B022801D903209BE4294874380068BF
:104B7000C0F340600028F1D047E025487438006851
:104B800020F08070224974390860FDF7A9FD0546C0
:104B900006E0FDF7A5FD401B022801D9032080E4B3
:104BA0001B4874380068C0F340600028F1D12CE045
:104BB00017484C380768164844380668606A012868
:104BC00021D007F00301A06A81421CD1C7F305116F
:104BD000E06A884217D1C6F30801206B401E81426B
:104BE00011D1606B401EC6F3462188420BD1A06BE9
:104BF000401EC6F30641884205D1E06B401EC6F355
:104C00000661884201D001204BE4002049E4000005
:104C1000744402580048025870B504462546681E80
:104C2000B0F1807F01D301200FE0681E4FF0E0213A
:104C300048610F214FF0FF3001F04EFC00204FF093
:104C4000E021886107200861002070BD10B586B0A2
:104C500004462B492068884250D100BF00BF294834
:104C6000006840F01000274908600846006800F01E
:104C70001000009000BF00BF00BF00BF00BF214870
:104C80001038006840F001001E49103908600846DD
:104C9000006800F00100009000BF00BF00BF00BF2F
:104CA00000BF0846006840F0010008600846006840
:104CB00000F00100009000BF00BF00BF4FF4007083
:104CC000019002200290012003900220049007200E
:104CD000059001A90C48FDF7EBFB4FF480600190B3
:104CE0000720059001A90848FDF7E2FB2520FDF704
:104CF000CAFD012211462520FDF7D5FD06B010BDE5
:104D000000100140F04402580000025870B50546FA
:104D10005F492868884204D15E4C00205E490870D3
:104D20000CE05E492868884201D15D4C06E05D498F
:104D30002868884201D15C4C00E070BDA068002862
:104D400013D05A48007880BBA08A00F400400028A5
:104D50000BD1A08A00F48040D0B9A06800780D285B
:104D600004D1A08A40F48040A0828FE0A06800783F
:104D7000A28AC2F30D02E1688854A08A401CA08276
:104D8000A18A608A401E8142EFDD0020A0827DE082
:104D9000A06800780A2809D1A08A40F40040A082C7
:104DA0000020002872D0A08270E002E00020A082E3
:104DB0006CE03E480078012809D1A0680178A28AF9
:104DC000501CA082C2F30D00E26811545EE0374827
:104DD000007802285AD13648007880BBA068017854
:104DE000A28A501CA082C2F30D00E2681154A06890
:104DF00000783A284AD101202D4908702DA1E06899
:104E0000FBF7C0FB061D3046FBF7C1FB2A490968CA
:104E10000844294908600846016828480268006873
:104E2000401C264B1860264840F82210A28AC2F384
:104E30000D01E068FBF7B0FB0020A08226E0FFE751
:104E40001B480078012821D1A068007842B21D4893
:104E500001680068401C1B4B18601B4842541846F0
:104E6000006815490968884210D10020104908706F
:104E70001846006815490968884207D1022014497C
:104E8000087000200C4908601946086000BF54E70C
:104E90000010014050000024D000002400440040D5
:104EA0007C00002400140140A8000024D10000244C
:104EB000E800002449504400D4000024E00000240D
:104EC000281B0524DC0000241401002428000024F1
:104ED0002700002400BFFEE73EB50446022C04D0A4
:104EE000032C03D0042C67D163E065E033480078DD
:104EF000A8BB0120314908700020314908703149B0
:104F000008606420304908802E48006800F5C860B9
:104F10002C4908602C490988C1F164014FF4C8622A
:104F200051432A4A02EB41004FF4C861FBF720FBD2
:104F30000020274910221346CDE900210290F022DB
:104F40001421FBF7F7FA002022A110221346CDE925
:104F500000210290F0221421FBF7ECFA28E0FFE791
:104F600016480078012823D102201449087000BF98
:104F70001C4800780128FBD100201A4908701A4803
:104F8000FBF7F1FA0020124910221346CDE9002167
:104F90000290F0221421FBF7CDFA002013A1102279
:104FA0001346CDE900210290F0221421FBF7C2FA4A
:104FB00002E000F0EFF800BF00BF3EBD0400002497
:104FC00027000024080000240C0000241401002401
:104FD0000E0000245265636F7264696E672E2E2E78
:104FE00000000000F4000024242B05245265636FA8
:104FF000726420446F6E65210000000010B501242A
:105000000020FBF7CEFA04460F48007828B9012C9F
:1050100019D001200C49087015E00B4800780128D0
:105020000CD1012C03D10020074908700BE0204669
:10503000FFF752FF02200449087004E0012C02D15E
:1050400000200149087010BD2C00002470470000AA
:105050003EB500240020404910221346CDE900212E
:105060000290F0222821FBF765FA00203BA11022D4
:105070001346CDE900210290F0222821FBF75AFACD
:105080000020354910221346CDE900210290F0227C
:105090003C21FBF74FFA01203449087035E03449D0
:1050A000C86834A1FBF76EFA041E2ED002202F49E7
:1050B0000870A4F10900FBF76AFA2F4908602C4A2E
:1050C000928AC2F30D012A4AD068FBF765FA0020E4
:1050D00027498882204910221346CDE900210290F9
:1050E000F0223C21FBF726FA002010210823CDE90D
:1050F000001021483C2102680020FBF72AFA00BF7B
:105100001E4800780228FBD100E0C8E700BF00205D
:10511000114910221346CDE900210290F0222821E6
:10512000FBF708FA002016A110221346CDE9002152
:105130000290F0222821FBF7FDF9002006491022F9
:105140001346CDE900210290F0223C21FBF7F2F951
:105150000020064908703EBD0E000024446F776EA3
:105160006C6F6164696E672E2E2E0000D1000024E2
:105170007C000024656E64002800002427000024C1
:10518000446F776E6C6F6164696E6720446F6E6503
:105190002100000030B597B000253748006808B9F5
:1051A00017B030BD0020354910221346CDE900214B
:1051B0000290F0222821FBF7BDF9002030A1102237
:1051C0001346CDE900210290F0222821FBF7B2F925
:1051D00000202A4910221346CDE900210290F02236
:1051E0003C21FBF7A7F924480088801E84B21AE00E
:1051F00026484119A02203A8FBF7D8F9A02103A84B
:10520000FBF7D9F9A4F1A00084B205F1A00085B2A2
:10521000642001F07DF902E00A2001F079F9FBF742
:10522000CFF90028F8D1A02CE2DC18484119224619
:1052300003A8FBF7BBF9E1B203A8FBF7BCF900BF79
:10524000FBF7BEF90028FBD10C4910221346CDE92B
:1052500000210290F0222821FBF76CF900200CA11C
:1052600010221346CDE900210290F0222821FBF7FD
:1052700061F900BF94E70000280000240E0000241C
:10528000506C6179696E672E2E2E00001401002487
:10529000506C6179696E6720446F6E652100000073
:1052A00070B58EB000254A4800688021C1EB4004EB
:1052B00080350020474910221346CDE90021029095
:1052C000F0221421FBF736F9002042491022134640
:1052D000CDE900210290F0222821FBF72BF90020D4
:1052E0003C4910221346CDE900210290F0223C21D6
:1052F000FBF720F90020374910221346CDE90021A1
:105300000290F0225021FBF715F90020102108230C
:105310002246CDE900102821FBF71BF900202EA121
:1053200010221346CDE900210290F0223C21FBF728
:1053300001F901202C49087022462CA104A8FBF792
:1053400044F90F232DA2102104A8FBF743F90A20EA
:1053500001F0DEF80BE02D49481911232CA24FF47F
:105360000061FBF737F9A4F5006405F50065B4F5B5
:10537000006FF0D822462BA109A8FBF726F909A84F
:10538000FBF72DF986B2A1B2204A5019334609AA7B
:10539000FBF720F900201449087026A110221346BB
:1053A000CDE900210290F0222821FBF7C3F800206C
:1053B000084910221346CDE900210290F0223C2139
:1053C000FBF7B8F801201F4908700EB070BD00004F
:1053D000080000240E00002455706C6F6164696E33
:1053E000672E2E2E00000000D10000246175646934
:1053F0006F2B252E38640D0A0000000041542B430A
:10540000495053454E443D31360D0A0014010024E5
:1054100041542B43495053454E443D323034380DAE
:105420000A00000041542B43495053454E443D254A
:10543000640D0A0055706C6F6164696E6720446F7B
:105440006E65210027000024704700002DE9F0411F
:1054500004460E4600275548006800F00300032864
:1054600002D10120BDE8F08150482838006820F0C2
:1054700080604E4928390860FDF732F9054606E09C
:10548000FDF72EF9401B022801D90320EAE747481F
:1054900028380068C0F3C0600028F1D100BF43483D
:1054A000006820F47C30216840EA01303F49086000
:1054B000A088401EC0F30800A168491E4FF47E4238
:1054C00002EA41210843A189491ED20102EA0141B1
:1054D0000843217C491E120202EA01610843334954
:1054E0001031086000BF3148001D006820F0C00086
:1054F000616908432D49091D08600846006820F0CD
:105500002000A16908432949091D08600846006870
:1055100020F0100008602548143000684FF6F8713C
:105520008843E16940EAC1002049143108601F48FE
:10553000001D006840F010001C49091D08602EB9CC
:105540000846006840F40020086012E0012E08D1EF
:105550001648001D006840F480101449091D0860B9
:1055600007E01248001D006840F400100F49091DB3
:1055700008600E482838006840F080600B492839E0
:105580000860FDF7ADF8054606E0FDF7A9F8401BF9
:10559000022801D9032065E7044828380068C0F3D1
:1055A000C0600028F1D038465CE70000284402586B
:1055B0002DE9F04104460E4600275548006800F0EA
:1055C0000300032802D10120BDE8F08150482838AB
:1055D000006820F080504E4928390860FDF780F8B7
:1055E000054606E0FDF77CF8401B022801D90320A0
:1055F000EAE7474828380068C0F340700028F1D136
:1056000000BF4348006820F07C70218840EA0150C8
:105610003F490860A088401EC0F30800A168491EE9
:105620004FF47E4202EA41210843A189491ED2017A
:1056300002EA01410843217C491E120202EA01618B
:10564000084333491831086000BF3148001D006825
:1056500020F44060616908432D49091D086008462F
:10566000006820F40070A16908432949091D0860F9
:105670000846006820F48070086025481C300068E7
:105680004FF6F8718843E16940EAC10020491C31B6
:1056900008601F48001D006840F480701C49091D07
:1056A00008602EB90846006840F48000086012E0E7
:1056B000012E08D11648001D006840F4000014496E
:1056C000091D086007E01248001D006840F0807066
:1056D0000F49091D08600E482838006840F08050C6
:1056E0000B4928390860FCF7FBFF054606E0FCF78C
:1056F000F7FF401B022801D9032065E7044828383A
:105700000068C0F340700028F1D038465CE7000024
:105710002844025810B50023234C236000BF00BF6B
:1057200000BFBFF34F8F00BF00BF00BF231F18682B
:10573000C0F34E3100BFC0F3C90200BF43F6E073AF
:1057400003EA41134FF0404404EA82742343174CA8
:10575000236000BF00BF131EA2F10102EED10B1E99
:10576000A1F10101E7D100BF00BF00BFBFF34F8F20
:1057700000BF00BF00BF0C4B703B1B6843F480337D
:10578000094C703C236000BF00BF00BFBFF34F8FC8
:1057900000BF00BF00BF00BF00BF00BFBFF36F8FDF
:1057A00000BF00BF00BF10BD84ED00E060EF00E06F
:1057B00000BF00BF00BFBFF34F8F00BF00BF00BFDF
:1057C00000BF00BF00BFBFF36F8F00BF00BF00BFAF
:1057D00000201449086000BF00BF00BFBFF34F8F17
:1057E00000BF00BF00BF00BF00BF00BFBFF36F8F8F
:1057F00000BF00BF00BF0C48006840F400300A49F9
:10580000086000BF00BF00BFBFF34F8F00BF00BFE5
:1058100000BF00BF00BF00BFBFF36F8F00BF00BF5E
:1058200000BF704750EF00E014ED00E0704710B586
:10583000FCF75CFF10BD00002448006840F47000D5
:10584000224908602248006840F0010020490860B1
:1058500000201F49103108601D4800681D4908409C
:105860001B49086000201A4918310860091D0860AA
:10587000091D0860164928310860091D0860091DC6
:105880000860091D0860091D0860091D0860091DE0
:105890000860091D08600E48006820F480200C494B
:1058A000086000200A49603108600B4800686FF307
:1058B0000F00B0F1005F02D20120084908604FF0EC
:1058C00000600249803908607047000088ED00E000
:1058D000004402587FEDF6EA0010005C0881005198
:1058E000F8B504460D46164600BF00BF854800685F
:1058F00040F00200834908600846006800F002009A
:10590000009000BF00BF00BF7F4880494968086021
:1059100029207E494968486000217C4840688160B0
:105920007A484068C1604FF48061784840680161FE
:10593000082C04D0102C07D0202C11D10AE0002113
:105940007248406841610BE04FF400616F48406865
:10595000416105E04FF480516C484068416100BFEF
:1059600000BF082D04D0102D07D0202D11D10AE042
:1059700000216648406881610BE04FF400516348A4
:105980004068816105E04FF4804160484068816172
:1059900000BF00BF00215D484068C1614FF4003185
:1059A0005A4840680162002158484068416203211A
:1059B000564840688162002154484068C16253489B
:1059C0004068016351494868FCF70EF900BF4F4831
:1059D00040684E49096888674C4800684B494968E7
:1059E000886300BF002E7DD0012211464520FCF7C0
:1059F0005AFF4520FCF747FF444840680068444987
:105A0000884267D04148406800684149183188425F
:105A100060D03E48406800683D493031884259D0E6
:105A20003A48406800683A494831884252D037487D
:105A3000406800683649603188424BD0334840683E
:105A4000006833497831884244D030484068006863
:105A50002F49903188423DD02C48406800682C493D
:105A6000A831884236D029484068006826499039D4
:105A700088422FD0254840680068234978398842F9
:105A800028D02248406800681F496039884221D0E8
:105A90001E48406800681C49483988421AD01B4893
:105AA0004068006818493039884213D01748406868
:105AB00000681549183988420CD0144840680068BD
:105AC0001149884206D01148406800680E491831D3
:105AD00088420CD10D4840680068006840F0100012
